:0400000007EF00F016
:100008005F82A9ED09F03FEF06F0000E436E000E87
:10001800446E000E3E6E7F0E466E46C03AF03B6A56
:10002800C00E3C6E55EC07F0410E3A6E2F0E3B6E3B
:10003800800E3C6E55EC07F0000EAEEC08F0456EF5
:10004800050E4518D8A402D0124A132A060E4518E0
:10005800D8A402D0144A152AE80E125C030E1358CD
:10006800D8B013D012501310D8B40FD04528D8A444
:100078000CD0272A030E346E27507FEC09F0276E28
:10008800000E136E000E126E70D0E90E125C030E95
:100098001358D8A06AD04528D8A467D00D0E3A6E58
:1000A8002F0E3B6E800E3C6E55EC07F0000E136E63
:1000B800000E126E4650D96EDA6ADF503D6E3D3A38
:1000C800F00E3D164650D96EDA6A010ED926DF5079
:1000D800D00F3D10426E4650D96EDA6A030ED9260B
:1000E800DF503D6E3D3AF00E3D164650D96EDA6A45
:1000F800040ED926DF50D00F3D10446E4650D96EFD
:10010800DA6A060ED926DF503D6E3D3AF00E3D16EE
:100118004650D96EDA6A070ED926DF50D00F3D1047
:10012800436E42C035F0020E07EC0AF044C035F0C9
:10013800010E07EC0AF043C035F0000E07EC0AF098
:10014800EA0E406E5F0E3F6E06D0140E416E4106F9
:100158004128D8A4FCD73F06D8A040063F28F5E19F
:100168004028D8A4F2D7000E2F6EE80E145C030EB8
:100178001558D8B0A2D014501510D8B49ED0452820
:10018800D8A49BD0000E156E000E146E2750D8A46C
:1001980035D04650D96EDA6A010ED926DF2A465084
:1001A800D96EDA6A010ED926390EDF640BD04650B3
:1001B800D96EDA6ADF2A4650D96EDA6A010ED92674
:1001C800300EDF6E4650D96EDA6A320EDE18D8A4C9
:1001D80012004650D96EDA6A010ED926330EDF6452
:1001E80012004650D96EDA6A010ED926300EDF6E3B
:1001F8004650D96EDA6A300EDF6E12002704D8A492
:100208002CD04650D96EDA6A040ED926DF2A465019
:10021800D96EDA6A040ED926390EDF640DD046503D
:10022800D96EDA6A030ED926DF2A4650D96EDA6A01
:10023800040ED926300EDF6E4650D96EDA6A030EE8
:10024800D926360EDE18D8A412004650D96EDA6ABE
:10025800030ED926300EDF6E1200020E2718D8A41E
:1002680012004650D96EDA6A070ED926DF2A4650A0
:10027800D96EDA6A070ED926390EDF640DD04650DA
:10028800D96EDA6A060ED926DF2A4650D96EDA6A9E
:10029800070ED926300EDF6E4650D96EDA6A060E82
:1002A800D926360EDE18D8A412004650D96EDA6A5E
:1002B800060ED926300EDF6E1200E90E145C030E0E
:1002C8001558D8A012004528D8A41200000E156EA3
:1002D800000E146E020E2F6E12000F503AE1040E3B
:1002E8000E5CD8B036D0B30E3A6E2F0E3B6E800E31
:1002F8003C6E55EC07F0010EAEEC08F0456E050EAD
:100308004518D8A414D0010E08C03DF009C03EF02D
:10031800D8903D363E363D10086E3E50096E0E5060
:10032800C00F3B6E2A0E24EC0AF00E4A0F2A060E66
:100338004518D8A45DD0D8900834086E0934096EE1
:100348000E50C00F3B6E2A0E24EC0AF00E4A0F2AFC
:100358004FD00F5004E1040E0E5CD8A049D00F50C6
:1003680047E1080E0E5CD8B043D0040E0E180F10EB
:10037800D8A405D0000E346E010EBEEC09F0FA0EBA
:100388003A6E2E0E3B6E800E3C6E55EC07F0010E59
:10039800AEEC08F0456E050E4518D8A416D0010E2F
:1003A80010C03DF011C03EF0D8903D363E363D10AD
:1003B800106E3E50116E0E4A0F2A0C50C00F3B6E45
:1003C8002A0E24EC0AF00C4A0D2A060E4518D8A469
:1003D8000FD00E4A0F2A0C50C00F3B6E2A0E24EC89
:1003E8000AF00C4A0D2AD8901034106E1134116E90
:1003F800080E0E180F10D8A41200000E346E010E4D
:10040800BEEC09F01050081832E111500918D8A4B0
:100418002ED010C022F011C023F010C035F0FF0E0E
:1004280006EC09F0740E3A6E2F0E3B6E800E3C6E91
:1004380055EC07F0D00E3A6E2F0E3B6EC00E3C6E98
:1004480055EC07F0EA0E406E5F0E3F6E06D01E0EAA
:10045800436E43064328D8A4FCD73F06D8A04006DD
:100468003F28F5E14028D8A4F2D7000E1CD0A40EEE
:100478003A6E2F0E3B6E800E3C6E55EC07F0EA0E7E
:10048800426E5F0E416E06D01E0E446E440644282E
:10049800D8A4FCD74106D8A042064128F5E1422855
:1004A800D8A4F2D7020E2F6E000E0F6E000E0E6E3D
:1004B800000E0D6E000E0C6E1200000E346E010E52
:1004C800BEEC09F0950E3A6E2F0E3B6E800E3C6E18
:1004D80055EC07F0000E446E000E426E000E416EA1
:1004E800040E2B6087D0010EAEEC08F0436E040EAC
:1004F8002A6028D0050E4318D8A409D02A50C00F66
:100508003B6E2A0E24EC0AF02A2AD8804436060EBE
:100518004318D8A40AD02A50C00F3B6E2A0E24ECE8
:100528000AF02A2A44504424446EC30E406E500EEA
:100538003F6E3F06D8A040063F28FBE14028D8B4CC
:10054800CFD7F7D7FF0E94EC09F03D6E3D50226EE1
:10055800236A44503D6E3E6A22503D180BE12350F9
:100568003E18D8A407D0020E2F6E000E2A6E040E75
:100578005E6E12005E50D8B43AD0300E3A6E2F0E2E
:100588003B6E800E3C6E55EC07F0C00E3B6E5E5025
:10059800300F24EC0AF0850E3A6E2F0E3B6EC10E1A
:1005A8003C6E55EC07F0414A422AD10E411898E1B9
:1005B800070E4218D8A494D75E062B2A000E426E66
:1005C800000E416E1F0E3A6E2F0E3B6EC00E3C6E33
:1005D80055EC07F0520E3A6E2F0E3B6E800E3C6EB5
:1005E80055EC07F0000E446E000E2A6E79D7050E02
:1005F8002B6E76D7000E2F6E000E2B6E000E2A6E15
:10060800040E5E6E1200800E3B6E2A0E24EC0AF079
:10061800C00E3B6E200E24EC0AF020C034F021C03E
:1006280035F0000E376E110E366ED2EC09F0000E62
:1006380034243A6E010E35203B6E810E3C6E55EC2B
:1006480007F020C034F021C035F0000E376E110ECF
:10065800366ED2EC09F0110E34243A6E010E3520B4
:100668003B6EC10E3C6E55EC07F0000EAEEC08F088
:100678003D6E050E3D18D8A402D01E4A1F2AE90E69
:100688001E5C030E1F58D8A014D03D28D8A411D042
:10069800070E2C6009D0000E346E010EBEEC09F076
:1006A800030E2F6E20282C6E000E1F6E000E1E6E7D
:1006B80016D01E501F10D8B412D0E80E1E5C030EC0
:1006C8001F58D8B00CD03D28D8A409D02150ECE14F
:1006D800040E205CD8B0E8D7204A212AE5D7060EB8
:1006E8003D18D8A402D01C4A1D2AE90E1C5C030E32
:1006F8001D58D8A00FD03D28D8A40CD0000E346EB9
:10070800010EBEEC09F0000E2F6E000E1D6E000EDD
:100718001C6E12001C501D10D8B41200E80E1C5C90
:10072800030E1D58D8B012003D28D8A4120020503E
:100738002110D8B4EAD72006D8A02106E6D7000EA3
:10074800AEEC08F0416E3050D8A41CD0000E406EBC
:10075800F70E3A6E2F0E3B6E830E3C6E55EC07F08B
:1007680016500E0DF350402494EC09F03F6E4050A3
:10077800C00F3B6E3F5024EC0AF0402A0D0E406437
:10078800E7D70BD03050D8B408D0C20E3A6E2F0E2F
:100798003B6EC00E3C6E55EC07F0050E4118D8A410
:1007A80002D01A4A1B2AF50E1A5C010E1B58D8A053
:1007B80014D04128D8A411D0130E3E6E880E3D6E79
:1007C8003D06D8A03E063D28FBE13E28D8A4F8D730
:1007D800000E1B6E000E1A6E16D01A501B10D8B4DD
:1007E80012D0F40E1A5C010E1B58D8B00CD0412858
:1007F800D8A409D01750ECE1090E165CD8B0E8D798
:10080800164A172AE5D7060E4118D8A402D0184A66
:10081800192AF50E185C010E1958D8A00FD04128D6
:10082800D8A40CD0000E346E010EBEEC09F0020EF6
:100838002F6E000E196E000E186E12001850191047
:10084800D8B41200F40E185C010E1958D8B0120072
:100858004128D8A4120016501710D8B4EAD71606A3
:10086800D8A01706E6D741C045F0466A476A403423
:10087800453601E3468045504C6E4C50D8A407D00D
:10088800000E3F6E000E406E000E416E120044C016
:1008980045F0466A476A4334453601E34680455089
:1008A8004D6E4D50D8A407D0000E3F6E000E406E1E
:1008B800000E416E1200000E496E000E4A6E000EC8
:1008C8004B6E4D50890F4C5E41C04DF044504D1A4F
:1008D800800E4D16408EFF0E3F16FF0E4016000E7E
:1008E8004116438EFF0E4216FF0E4316000E4416A5
:1008F800180E486ED89049364A364B3642503F5CFF
:100908004350405844504158D8A007D042503F5E09
:100918004350405A4450415A4980D8903F36403657
:100928004136482EE7D749C034F04AC035F04BC0AD
:1009380036F04CC037F04DC038F013EC05F034C039
:100948003FF035C040F036C041F0120050C052F0C0
:10095800536A546A4F34523601E3538052505C6EE6
:100968005C50D8A409D0000E4E6E000E4F6E000EDB
:10097800506E000E516E1200170E526E4EC053F09C
:100988004FC054F050C055F05228566E04D0D8903D
:10099800553254325332562EFAD75350576E4F8E23
:1009A800FF0E4E16FF0E4F16000E50164E50586E84
:1009B8004F50596E50505A6E5B6A8E0E5C5E5CAE3C
:1009C8000DD05C50800A8F0FD8A0CDD7D8905B325D
:1009D8005A32593258325C3EF9D70DD0170E5C6442
:1009E80007D0C1D7D890583659365A365B365C0688
:1009F8005C50D8A4F7D75750D8B408D05B1E5A1EFD
:100A0800591E586C000E59225A225B2258C04EF0CB
:100A180059C04FF05AC050F05BC051F01200375027
:100A2800D8B405D0345035103610D8A40CD0000EE8
:100A3800346E000E356E000E366E1200372AD890CE
:100A4800363235323432000E3414396E000E351415
:100A58003A6EFE0E36143B6E39503A103B10D8B43D
:100A68000CD0ECD7372A010E3426000E3522000EA2
:100A78003622D890363235323432000E3414396E7C
:100A8800000E35143A6EFF0E36143B6E39503A108C
:100A98003B10D8B406D0E6D73706D890343635366A
:100AA800363635BE03D0020E3760F6D737A0359EEE
:100AB800D8903732375036123850D8A4368E34C0D2
:100AC80034F035C035F036C036F01200550E426E9F
:100AD800250E436E410E446E040ECDEC08F034C072
:100AE8003CF035C03DF0E5EC09F03CC03FF03DC0BE
:100AF80040F03EC041F037EC04F03FC04EF040C03B
:100B08004FF041C050F0AAEC04F04EC024F04FC0A2
:100B180025F07F0E3A6E3B6AC00E3C6E55EC07F02E
:100B2800CE0E3B6E24C034F025C035F0000E376E73
:100B38000A0E366EAFEC07F03450300F24EC0AF092
:100B4800CF0E3B6E24C034F025C035F0000E376E52
:100B58000A0E366E6EEC08F03450300F24EC0AF0B2
:100B6800120020EE3DF00E0EDE6AE806FDE2000EF1
:100B7800286E000E296E29503D0FD96EDA6A28506A
:100B88000E0DF350292494EC09F0DF6E292A0D0E7E
:100B98002964F1D7FC0E356E2F0E366ED8EC07F0AF
:100BA8003D0E356E366AD8EC07F0282A090E2864FF
:100BB800E0D7E70E3A6E2E0E3B6EC00E3C6E55EC3B
:100BC80007F0EA0E4D6E5F0E4C6E06D01E0E4E6E8E
:100BD8004E064E28D8A4FCD74C06D8A04D064C2863
:100BE800F5E14D28D8A4F2D7020E2F6E12007FC06F
:100BF8006FF080C070F03A0E0001716F82C072F021
:100C080083C073F03A0E746F85C075F086C076F0B5
:100C18003A0E776F3350030DF350880FD96EDA6AA6
:100C2800DF50786F3350030DF350890FD96EDA6AAD
:100C3800DF50796F200E7A6F24C034F025C035F06C
:100C4800000E376E0A0E366EAFEC07F03450300FD8
:100C580000017B6F24C034F025C035F0000E376EDC
:100C68000A0E366E6EEC08F03450300F00017C6FBF
:100C78003BEC09F01200DE0EF66E0D0EF76E000E5C
:100C8800F86E01EE00F010EE66F00900F5CFEEFF09
:100C9800E550E150FAE12C0EF66E140EF76E000ED8
:100CA800F86E00EE88F010EE1BF00900F5CFEEFFAD
:100CB800E550E150FAE1DA0EF66E140EF76E000E0A
:100CC800F86E0900F5CF5DF00900F5CF5EF000EE93
:100CD80060F0280EEE6AE806FDE100EE01F0330E42
:100CE800EE6AE806FDE15F905F92000EF86E000183
:100CF80001EF08F0819A818C818E81B202D0010EB9
:100D0800120081B402D0040E120081B602D0070E80
:100D1800120081B802D00A0E1200818A819C818E4D
:100D280081B202D0020E120081B402D0050E120068
:100D380081B602D0080E120081B802D00B0E120044
:100D4800818A818C819E819E81B202D0030E12001D
:100D580081B402D0060E120081B602D0090E12002C
:100D680081B802D00C0E1200FF0E1200020E55ECD4
:100D780009F0016E010E55EC09F0026E000E55ECFB
:100D880009F0036E01AC04D001380F0B010B03D03E
:100D980001380F0B030B300F00017F6F01500F0B51
:100DA800300F806F3A0E816F02380F0B0F0B300F28
:100DB800826F02500F0B300F836F3A0E846F033827
:100DC8000F0B0F0B300F856F03500F0B300F866F13
:100DD800000E876F120056696577204C6F672020D8
:100DE80020202020202000436C656172204C6F6712
:100DF8002020202020000000446F776E6C6F616413
:100E0800204C6F6720202000005365742054696DC2
:100E1800652020202020202000004368616E67653F
:100E28002050617373776F726400003C3C2020206F
:100E3800455849542020203E3E200000010EAEECCB
:100E480008F03B6E3B04D8A40DD0060E336003D0E7
:100E5800332AFBEC05F0080E3318D8A41BD0010E7A
:100E6800336E18D0020E3B18D8A40DD0080E3318D4
:100E7800D8A402D0010E336E010E33640BD03306B2
:100E8800FBEC05F007D0030E3B18D8A403D0080EDE
:100E9800336EF6D7040E3B18D8A41200010E2F6E3D
:100EA8001200000E346E3C50BEEC09F016D0010E54
:100EB800346E3AC0F6FF3BC0F7FFF86A050EF764D8
:100EC80003D00800F55005D0F6CFE9FFF7CFEAFFC9
:100ED800EF50BEEC09F03A4A3B2A3AC0F6FF3BC055
:100EE800F7FFF86A050EF76403D00800F55005D03F
:100EF800F6CFE9FFF7CFEAFFEF500009D8B41200A8
:100F0800D6D7010E306EEB0E3A6E2F0E3B6EC00E2A
:100F18003C6E55EC07F0DE0E3A6E2F0E3B6E800EDF
:100F28003C6E55EC07F0000EAEEC08F03F6E050E77
:100F38003F18D8A402D03D4A3E2AE90E3D5C030E74
:100F48003E58D8A01200000E346E010EBEEC09F017
:100F5800020E2F6E1200000E396E000E386E3650DB
:100F68003710D8B41CD0010E3A6E04D0D89036365B
:100F780037363A2A37AEFAD7D89038363936365017
:100F8800345C37503558D8A005D03650345E3750C9
:100F9800355A3880D890373236323A2EEDD738C0A5
:100FA80034F039C035F0120014D035C0F6FF36C021
:100FB800F7FFF86A050EF76403D00800F55005D06E
:100FC800F6CFE9FFF7CFEAFFEF5050EC0AF0354AC9
:100FD800362A35C0F6FF36C0F7FFF86A050EF76403
:100FE80003D00800F55005D0F6CFE9FFF7CFEAFFA8
:100FF800EF500009D8B41200D8D721EC09F0010E3F
:10100800AEEC08F02F50D8A409D0BAEC06F06AEC80
:1010180005F06AEC09F022EC07F0F1D72F04D8A408
:1010280003D061EC02F0EBD7020E2F18D8A403D03E
:1010380007EC03F0E4D7030E2F18D8A4E0D726EC6A
:1010480008F0DDD713D0A3EC03F0120085EC07F00D
:101058001200B5EC05F0120009EC00F01200000EC9
:10106800236E000E226E71EC01F012002C50010A62
:10107800D8B4E9D7030AD8B4E9D7010AD8B4E9D76C
:10108800070AD8B4E9D7010AD8A41200E8D7000E95
:1010980055EC09F0376E37508009356E000E07ECB5
:1010A8000AF0020E55EC09F0376E37C035F0020E23
:1010B80007EC0AF0930E356E070E07EC0AF0000EE7
:1010C80055EC09F0376E37507F0B356E000E07EC84
:1010D8000AF0120036503710D8B418D0010E386E06
:1010E80004D0D89036363736382A37AEFAD7365045
:1010F800345C37503558D8A004D03650345E375059
:10110800355AD89037323632382EF1D734C034F0C9
:1011180035C035F01200948E949CAC9EAC9CAC8A81
:10112800AC98AC96AC84AC92AC90AB8EAB9CAB9AC2
:10113800AB88AB96AB94AB92AB90B89EB88CB89892
:10114800B896B892B890810EAF6E9D889E989D8A89
:101158009E9A1200346E3404D8A413D07EEC06F0A4
:10116800266E2628D8B407D05D50D8B404D0000E17
:101178005D6E265012002628D8A409D0010E5D6E97
:1011880006D03450D8A403D07EEC06F01200FF0E2F
:1011980012003A6E3AC036F0D8903636D8903636C5
:1011A800C250C30B3610C26EC282C2B2FED7C35041
:1011B800C4CF36F0376A36C037F0366A3610386E24
:1011C8003750396E38C034F039C035F01200000E8F
:1011D800956E9450F80B946E8290000E346E020E49
:1011E800BEEC09F0000E346E380EBEEC09F0000EAD
:1011F800346E0C0EBEEC09F0000E346E010EBEEC1F
:1012080009F01200386E5AEC0AF0A00E44EC0AF00D
:10121800385044EC0AF0355044EC0AF056EC0AF029
:10122800030E376EE80E366E3606D8A03706362817
:10123800FBE13728D8B41200F7D7EBEC08F030EC14
:101248000AF04BEC08F0F7EC09F03BEC0AF08FECF5
:1012580008F0630E3A6E2F0E3B6E800E3C6E55EC16
:1012680007F0000E346E010EBEEC09F01200000EFD
:10127800396E39506F0FD96EDA6ADF50356E3250D9
:101288000E0DF350392406EC09F0392A0D0E396495
:10129800F0D7322A0A0E3218D8A41200000E326E85
:1012A8001200356E5AEC0AF0D00E44EC0AF03550B4
:1012B80044EC0AF05EEC0AF0D10E44EC0AF04AEC79
:1012C8000AF0366E56EC0AF036501200630E3A6E8B
:1012D8002F0E3B6E800E3C6E55EC07F03350030D1D
:1012E800F350880F3D6E3DC03AF03B6ACB0E3C6E22
:1012F80055EC07F01200356E080E366E000E376E8C
:10130800D89035343734376ED89035363450375C0A
:10131800D8A002D03450375E362EF2D7375012009C
:10132800356E5AEC0AF0A00E44EC0AF0355044EC45
:101338000AF05EEC0AF0A10E44EC0AF04AEC0AF05E
:10134800366E56EC0AF03650120006009EA20FD0F8
:10135800044A052A210E04180AE14E0E0518D8A4DD
:1013680006D0064A072A000E056E000E046E9E92ED
:101378005F921100356E34A002D0828201D0829231
:1013880035C083FF82848294958E82808292828483
:10139800829483BEFCD78290959E12003450360208
:1013A800F3CF38F0F4CF39F034503702F350392600
:1013B80035503602F350392638C034F039C035F08C
:1013C80012003CC034F03DC035F0366A8E0E376EE0
:1013D800000E386E13EC05F034C03CF035C03DF01B
:1013E80036C03EF01200C08EC08AC098C096C09029
:1013F800C082C094C292C19AC198000EC46E000EF9
:10140800C36EC2801200366E5AEC0AF0D00E44EC5D
:101418000AF0365044EC0AF0355044EC0AF056EC29
:101428000AF012004F4E00474E0047520047310065
:0F143800473200473300473400473500434C002C
:101448003C6E000E346E3B50BEEC09F0010E346E5B
:101458003C50BEEC09F0120094869488280EC66EA3
:10146800310EC86EC79CC78E9E96A19612000F0EAD
:10147800C16E1E0E936EF19E8150E009816E1200BE
:10148800346E34C0C9FF66EC0AF0120062EC0AF050
:101498006AEC0AF0C9501200346E9EA8FED734C018
:1014A800ADFF1200C58466EC0AF01200C58066EC38
:1014B8000AF01200C58266EC0AF01200C58666ECD6
:1014C8000AF012009EA6FED79E961200C58AC5880D
:0414D80012000104F9
:102EE60000446F776E6C6F616420636F6D706C6504
:102EF6007465640052656520456E74657220706164
:102F06007373776F72640053617665642054696DDC
:102F16006520696E20525443002020202020202066
:102F260020202020202020202000202020547279DC
:102F36005F416761696E202020200054696D65201D
:102F46002848483A4D4D3A53532920005F454E5480
:102F560045525F50415353574F524420002020544E
:102F6600494D4520202020455620205350005061D1
:102F76007373776F7264206368616E67656400209F
:102F86002054696D65206C656674202020200045FC
:102F96004E5445522050415353574F524400577296
:102FA6006F6E672050617373776F726400456E743D
:102FB60065722050617373776F7264004E6F206C78
:102FC6006F6720666F756E64200053756363657363
:102FD6007366756C6C7920005355434345535346CD
:102FE600554C4C5900436C6561726564204C6F67A3
:0A2FF600006C6F6773000A0D000005
:00000001FF
